{
  "_format": "hh-sol-artifact-1",
  "contractName": "Cryptunes",
  "sourceName": "contracts/Cryptunes.sol",
  "abi": [
    {
      "inputs": [],
      "stateMutability": "nonpayable",
      "type": "constructor"
    },
    {
      "anonymous": false,
      "inputs": [
        {
          "indexed": true,
          "internalType": "address",
          "name": "account",
          "type": "address"
        },
        {
          "indexed": true,
          "internalType": "address",
          "name": "operator",
          "type": "address"
        },
        {
          "indexed": false,
          "internalType": "bool",
          "name": "approved",
          "type": "bool"
        }
      ],
      "name": "ApprovalForAll",
      "type": "event"
    },
    {
      "anonymous": false,
      "inputs": [
        {
          "indexed": true,
          "internalType": "address",
          "name": "operator",
          "type": "address"
        },
        {
          "indexed": true,
          "internalType": "address",
          "name": "from",
          "type": "address"
        },
        {
          "indexed": true,
          "internalType": "address",
          "name": "to",
          "type": "address"
        },
        {
          "indexed": false,
          "internalType": "uint256[]",
          "name": "ids",
          "type": "uint256[]"
        },
        {
          "indexed": false,
          "internalType": "uint256[]",
          "name": "values",
          "type": "uint256[]"
        }
      ],
      "name": "TransferBatch",
      "type": "event"
    },
    {
      "anonymous": false,
      "inputs": [
        {
          "indexed": true,
          "internalType": "address",
          "name": "operator",
          "type": "address"
        },
        {
          "indexed": true,
          "internalType": "address",
          "name": "from",
          "type": "address"
        },
        {
          "indexed": true,
          "internalType": "address",
          "name": "to",
          "type": "address"
        },
        {
          "indexed": false,
          "internalType": "uint256",
          "name": "id",
          "type": "uint256"
        },
        {
          "indexed": false,
          "internalType": "uint256",
          "name": "value",
          "type": "uint256"
        }
      ],
      "name": "TransferSingle",
      "type": "event"
    },
    {
      "anonymous": false,
      "inputs": [
        {
          "indexed": false,
          "internalType": "string",
          "name": "value",
          "type": "string"
        },
        {
          "indexed": true,
          "internalType": "uint256",
          "name": "id",
          "type": "uint256"
        }
      ],
      "name": "URI",
      "type": "event"
    },
    {
      "inputs": [
        {
          "internalType": "string",
          "name": "collectionName",
          "type": "string"
        },
        {
          "internalType": "address",
          "name": "artist",
          "type": "address"
        }
      ],
      "name": "addCollectionArtist",
      "outputs": [],
      "stateMutability": "nonpayable",
      "type": "function"
    },
    {
      "inputs": [
        {
          "internalType": "address",
          "name": "account",
          "type": "address"
        },
        {
          "internalType": "uint256",
          "name": "id",
          "type": "uint256"
        }
      ],
      "name": "balanceOf",
      "outputs": [
        {
          "internalType": "uint256",
          "name": "",
          "type": "uint256"
        }
      ],
      "stateMutability": "view",
      "type": "function"
    },
    {
      "inputs": [
        {
          "internalType": "address[]",
          "name": "accounts",
          "type": "address[]"
        },
        {
          "internalType": "uint256[]",
          "name": "ids",
          "type": "uint256[]"
        }
      ],
      "name": "balanceOfBatch",
      "outputs": [
        {
          "internalType": "uint256[]",
          "name": "",
          "type": "uint256[]"
        }
      ],
      "stateMutability": "view",
      "type": "function"
    },
    {
      "inputs": [
        {
          "internalType": "string",
          "name": "collectionName",
          "type": "string"
        }
      ],
      "name": "collectionExists",
      "outputs": [
        {
          "internalType": "bool",
          "name": "",
          "type": "bool"
        }
      ],
      "stateMutability": "view",
      "type": "function"
    },
    {
      "inputs": [
        {
          "internalType": "string",
          "name": "collectionName",
          "type": "string"
        }
      ],
      "name": "collectionWithdraw",
      "outputs": [],
      "stateMutability": "payable",
      "type": "function"
    },
    {
      "inputs": [
        {
          "internalType": "string",
          "name": "collectionName",
          "type": "string"
        },
        {
          "internalType": "string",
          "name": "groupID",
          "type": "string"
        },
        {
          "internalType": "uint256",
          "name": "collectionTokensSupply",
          "type": "uint256"
        }
      ],
      "name": "createCollection",
      "outputs": [],
      "stateMutability": "payable",
      "type": "function"
    },
    {
      "inputs": [
        {
          "internalType": "string",
          "name": "metadataURL",
          "type": "string"
        },
        {
          "internalType": "string",
          "name": "collectionName",
          "type": "string"
        },
        {
          "internalType": "uint256",
          "name": "mintPrice",
          "type": "uint256"
        },
        {
          "internalType": "uint256",
          "name": "maxSupply",
          "type": "uint256"
        }
      ],
      "name": "defineNFT",
      "outputs": [],
      "stateMutability": "nonpayable",
      "type": "function"
    },
    {
      "inputs": [
        {
          "internalType": "string",
          "name": "collectionName",
          "type": "string"
        },
        {
          "internalType": "address",
          "name": "artist",
          "type": "address"
        }
      ],
      "name": "deleteCollectionArtist",
      "outputs": [],
      "stateMutability": "nonpayable",
      "type": "function"
    },
    {
      "inputs": [
        {
          "internalType": "string",
          "name": "collectionName",
          "type": "string"
        }
      ],
      "name": "getCollectionMaxCap",
      "outputs": [
        {
          "internalType": "uint256",
          "name": "",
          "type": "uint256"
        }
      ],
      "stateMutability": "view",
      "type": "function"
    },
    {
      "inputs": [
        {
          "internalType": "uint256",
          "name": "tokenId",
          "type": "uint256"
        }
      ],
      "name": "getToken",
      "outputs": [
        {
          "components": [
            {
              "internalType": "string",
              "name": "metadataURL",
              "type": "string"
            },
            {
              "internalType": "string",
              "name": "space",
              "type": "string"
            },
            {
              "internalType": "address",
              "name": "creator",
              "type": "address"
            },
            {
              "internalType": "uint256",
              "name": "maxCap",
              "type": "uint256"
            },
            {
              "internalType": "uint256",
              "name": "availableTokens",
              "type": "uint256"
            },
            {
              "internalType": "uint256",
              "name": "price",
              "type": "uint256"
            }
          ],
          "internalType": "struct Cryptunes.Token",
          "name": "",
          "type": "tuple"
        }
      ],
      "stateMutability": "view",
      "type": "function"
    },
    {
      "inputs": [],
      "name": "getcollectionINFO",
      "outputs": [
        {
          "internalType": "string[]",
          "name": "",
          "type": "string[]"
        },
        {
          "internalType": "string[]",
          "name": "",
          "type": "string[]"
        }
      ],
      "stateMutability": "view",
      "type": "function"
    },
    {
      "inputs": [
        {
          "internalType": "string",
          "name": "collectionName",
          "type": "string"
        }
      ],
      "name": "getcollectionTokens",
      "outputs": [
        {
          "internalType": "uint32[]",
          "name": "",
          "type": "uint32[]"
        }
      ],
      "stateMutability": "view",
      "type": "function"
    },
    {
      "inputs": [
        {
          "internalType": "address",
          "name": "account",
          "type": "address"
        },
        {
          "internalType": "address",
          "name": "operator",
          "type": "address"
        }
      ],
      "name": "isApprovedForAll",
      "outputs": [
        {
          "internalType": "bool",
          "name": "",
          "type": "bool"
        }
      ],
      "stateMutability": "view",
      "type": "function"
    },
    {
      "inputs": [
        {
          "internalType": "address",
          "name": "artist",
          "type": "address"
        }
      ],
      "name": "isArtistForCollections",
      "outputs": [
        {
          "internalType": "string[]",
          "name": "",
          "type": "string[]"
        }
      ],
      "stateMutability": "view",
      "type": "function"
    },
    {
      "inputs": [
        {
          "internalType": "string",
          "name": "collectionName",
          "type": "string"
        },
        {
          "internalType": "address",
          "name": "sender",
          "type": "address"
        }
      ],
      "name": "isCollectionArtist",
      "outputs": [
        {
          "internalType": "bool",
          "name": "",
          "type": "bool"
        }
      ],
      "stateMutability": "view",
      "type": "function"
    },
    {
      "inputs": [
        {
          "internalType": "uint256",
          "name": "tokenid",
          "type": "uint256"
        }
      ],
      "name": "mint",
      "outputs": [],
      "stateMutability": "payable",
      "type": "function"
    },
    {
      "inputs": [
        {
          "internalType": "address",
          "name": "from",
          "type": "address"
        },
        {
          "internalType": "address",
          "name": "to",
          "type": "address"
        },
        {
          "internalType": "uint256[]",
          "name": "ids",
          "type": "uint256[]"
        },
        {
          "internalType": "uint256[]",
          "name": "amounts",
          "type": "uint256[]"
        },
        {
          "internalType": "bytes",
          "name": "data",
          "type": "bytes"
        }
      ],
      "name": "safeBatchTransferFrom",
      "outputs": [],
      "stateMutability": "nonpayable",
      "type": "function"
    },
    {
      "inputs": [
        {
          "internalType": "address",
          "name": "from",
          "type": "address"
        },
        {
          "internalType": "address",
          "name": "to",
          "type": "address"
        },
        {
          "internalType": "uint256",
          "name": "id",
          "type": "uint256"
        },
        {
          "internalType": "uint256",
          "name": "amount",
          "type": "uint256"
        },
        {
          "internalType": "bytes",
          "name": "data",
          "type": "bytes"
        }
      ],
      "name": "safeTransferFrom",
      "outputs": [],
      "stateMutability": "nonpayable",
      "type": "function"
    },
    {
      "inputs": [
        {
          "internalType": "address",
          "name": "operator",
          "type": "address"
        },
        {
          "internalType": "bool",
          "name": "approved",
          "type": "bool"
        }
      ],
      "name": "setApprovalForAll",
      "outputs": [],
      "stateMutability": "nonpayable",
      "type": "function"
    },
    {
      "inputs": [
        {
          "internalType": "uint256",
          "name": "tokenid",
          "type": "uint256"
        },
        {
          "internalType": "uint256",
          "name": "tokenPrice",
          "type": "uint256"
        }
      ],
      "name": "setTokenMintPrice",
      "outputs": [],
      "stateMutability": "nonpayable",
      "type": "function"
    },
    {
      "inputs": [
        {
          "internalType": "bytes4",
          "name": "interfaceId",
          "type": "bytes4"
        }
      ],
      "name": "supportsInterface",
      "outputs": [
        {
          "internalType": "bool",
          "name": "",
          "type": "bool"
        }
      ],
      "stateMutability": "view",
      "type": "function"
    },
    {
      "inputs": [],
      "name": "totalSupply",
      "outputs": [
        {
          "internalType": "uint256",
          "name": "",
          "type": "uint256"
        }
      ],
      "stateMutability": "view",
      "type": "function"
    },
    {
      "inputs": [
        {
          "internalType": "address",
          "name": "newCollectionOwner",
          "type": "address"
        },
        {
          "internalType": "string",
          "name": "collectionName",
          "type": "string"
        }
      ],
      "name": "transferCollectionOwnership",
      "outputs": [],
      "stateMutability": "nonpayable",
      "type": "function"
    },
    {
      "inputs": [
        {
          "internalType": "address",
          "name": "newOwner",
          "type": "address"
        }
      ],
      "name": "transferOwnership",
      "outputs": [],
      "stateMutability": "nonpayable",
      "type": "function"
    },
    {
      "inputs": [
        {
          "internalType": "uint256",
          "name": "tokenId",
          "type": "uint256"
        }
      ],
      "name": "uri",
      "outputs": [
        {
          "internalType": "string",
          "name": "",
          "type": "string"
        }
      ],
      "stateMutability": "view",
      "type": "function"
    },
    {
      "inputs": [],
      "name": "withdraw",
      "outputs": [],
      "stateMutability": "payable",
      "type": "function"
    }
  ],
  "bytecode": "0x60806040523480156200001157600080fd5b506040518060200160405280600081525062000033816200008360201b60201c565b5033600360006101000a81548173ffffffffffffffffffffffffffffffffffffffff021916908373ffffffffffffffffffffffffffffffffffffffff1602179055506000600981905550620001b4565b80600290805190602001906200009b9291906200009f565b5050565b828054620000ad906200017e565b90600052602060002090601f016020900481019282620000d157600085556200011d565b82601f10620000ec57805160ff19168380011785556200011d565b828001600101855582156200011d579182015b828111156200011c578251825591602001919060010190620000ff565b5b5090506200012c919062000130565b5090565b5b808211156200014b57600081600090555060010162000131565b5090565b7f4e487b7100000000000000000000000000000000000000000000000000000000600052602260045260246000fd5b600060028204905060018216806200019757607f821691505b60208210811415620001ae57620001ad6200014f565b5b50919050565b614b3b80620001c46000396000f3fe6080604052600436106101805760003560e01c80637bf48f7f116100d1578063cde722681161008a578063e4b50cb811610064578063e4b50cb81461057e578063e985e9c5146105bb578063f242432a146105f8578063f2fde38b1461062157610180565b8063cde72268146104c7578063e0fd28a014610504578063e41806e61461054157610180565b80637bf48f7f146103d757806388225af5146104005780639d4eb9c51461043d578063a0712d6814610459578063a22cb46514610475578063b76cc3f11461049e57610180565b80632eb2c2d61161013e5780634acb5863116101185780634acb58631461030b5780634e1273f4146103345780636e73856f14610371578063707f03961461039a57610180565b80632eb2c2d6146102bc5780633ccfd60b146102e55780634197ed74146102ef57610180565b8062fdd58e1461018557806301ffc9a7146101c25780630e89341c146101ff57806318160ddd1461023c5780631b6a5a6e1461026757806326c128c714610293575b600080fd5b34801561019157600080fd5b506101ac60048036038101906101a7919061309b565b61064a565b6040516101b991906130ea565b60405180910390f35b3480156101ce57600080fd5b506101e960048036038101906101e4919061315d565b610713565b6040516101f691906131a5565b60405180910390f35b34801561020b57600080fd5b50610226600480360381019061022191906131c0565b6107f5565b6040516102339190613286565b60405180910390f35b34801561024857600080fd5b506102516108a6565b60405161025e91906130ea565b60405180910390f35b34801561027357600080fd5b5061027c6108b7565b60405161028a9291906133b4565b60405180910390f35b34801561029f57600080fd5b506102ba60048036038101906102b59190613520565b610b50565b005b3480156102c857600080fd5b506102e360048036038101906102de91906136e5565b610bbe565b005b6102ed610c5f565b005b610309600480360381019061030491906137b4565b610cc4565b005b34801561031757600080fd5b50610332600480360381019061032d919061383f565b610e23565b005b34801561034057600080fd5b5061035b6004803603810190610356919061395e565b610e65565b6040516103689190613a94565b60405180910390f35b34801561037d57600080fd5b5061039860048036038101906103939190613ab6565b610f7e565b005b3480156103a657600080fd5b506103c160048036038101906103bc9190613b55565b611173565b6040516103ce91906131a5565b60405180910390f35b3480156103e357600080fd5b506103fe60048036038101906103f99190613b9e565b6111fd565b005b34801561040c57600080fd5b5061042760048036038101906104229190613b55565b611226565b60405161043491906130ea565b60405180910390f35b61045760048036038101906104529190613b55565b611284565b005b610473600480360381019061046e91906131c0565b611375565b005b34801561048157600080fd5b5061049c60048036038101906104979190613c0a565b61142e565b005b3480156104aa57600080fd5b506104c560048036038101906104c0919061383f565b611444565b005b3480156104d357600080fd5b506104ee60048036038101906104e9919061383f565b611486565b6040516104fb91906131a5565b60405180910390f35b34801561051057600080fd5b5061052b60048036038101906105269190613c4a565b6114c3565b6040516105389190613c77565b60405180910390f35b34801561054d57600080fd5b5061056860048036038101906105639190613b55565b61161a565b6040516105759190613d67565b60405180910390f35b34801561058a57600080fd5b506105a560048036038101906105a091906131c0565b61171f565b6040516105b29190613e28565b60405180910390f35b3480156105c757600080fd5b506105e260048036038101906105dd9190613e4a565b6118e4565b6040516105ef91906131a5565b60405180910390f35b34801561060457600080fd5b5061061f600480360381019061061a9190613e8a565b611978565b005b34801561062d57600080fd5b5061064860048036038101906106439190613c4a565b611a19565b005b60008073ffffffffffffffffffffffffffffffffffffffff168373ffffffffffffffffffffffffffffffffffffffff1614156106bb576040517f08c379a00000000000000000000000000000000000000000000000000000000081526004016106b290613f93565b60405180910390fd5b60008083815260200190815260200160002060008473ffffffffffffffffffffffffffffffffffffffff1673ffffffffffffffffffffffffffffffffffffffff16815260200190815260200160002054905092915050565b60007fd9b67a26000000000000000000000000000000000000000000000000000000007bffffffffffffffffffffffffffffffffffffffffffffffffffffffff1916827bffffffffffffffffffffffffffffffffffffffffffffffffffffffff191614806107de57507f0e89341c000000000000000000000000000000000000000000000000000000007bffffffffffffffffffffffffffffffffffffffffffffffffffffffff1916827bffffffffffffffffffffffffffffffffffffffffffffffffffffffff1916145b806107ee57506107ed82611a66565b5b9050919050565b606061080082611ad0565b60076000838152602001908152602001600020600001805461082190613fe2565b80601f016020809104026020016040519081016040528092919081815260200182805461084d90613fe2565b801561089a5780601f1061086f5761010080835404028352916020019161089a565b820191906000526020600020905b81548152906001019060200180831161087d57829003601f168201915b50505050509050919050565b60006108b26004611ae9565b905090565b60608060006108c66005611ae9565b67ffffffffffffffff8111156108df576108de6133f5565b5b60405190808252806020026020018201604052801561091257816020015b60608152602001906001900390816108fd5790505b50905060006109216005611ae9565b67ffffffffffffffff81111561093a576109396133f5565b5b60405190808252806020026020018201604052801561096d57816020015b60608152602001906001900390816109585790505b50905060005b61097d6005611ae9565b811015610b4357600860006001836109959190614043565b815260200190815260200160002080546109ae90613fe2565b80601f01602080910402602001604051908101604052809291908181526020018280546109da90613fe2565b8015610a275780601f106109fc57610100808354040283529160200191610a27565b820191906000526020600020905b815481529060010190602001808311610a0a57829003601f168201915b5050505050838281518110610a3f57610a3e614099565b5b6020026020010181905250600660086000600184610a5d9190614043565b8152602001908152602001600020604051610a789190614167565b90815260200160405180910390206007018054610a9490613fe2565b80601f0160208091040260200160405190810160405280929190818152602001828054610ac090613fe2565b8015610b0d5780601f10610ae257610100808354040283529160200191610b0d565b820191906000526020600020905b815481529060010190602001808311610af057829003601f168201915b5050505050828281518110610b2557610b24614099565b5b60200260200101819052508080610b3b9061417e565b915050610973565b5081819350935050509091565b610b5a8133611af7565b81600682604051610b6b91906141f8565b908152602001604051809103902060060160006101000a81548173ffffffffffffffffffffffffffffffffffffffff021916908373ffffffffffffffffffffffffffffffffffffffff1602179055505050565b610bc6611b74565b73ffffffffffffffffffffffffffffffffffffffff168573ffffffffffffffffffffffffffffffffffffffff161480610c0c5750610c0b85610c06611b74565b6118e4565b5b610c4b576040517f08c379a0000000000000000000000000000000000000000000000000000000008152600401610c4290614281565b60405180910390fd5b610c588585858585611b7c565b5050505050565b610c6833611e9e565b60003390508073ffffffffffffffffffffffffffffffffffffffff166108fc600a5447610c9591906142a1565b9081150290604051600060405180830381858888f19350505050158015610cc0573d6000803e3d6000fd5b5050565b60008111610cd157600080fd5b600954341015610ce057600080fd5b610ce983611173565b15610cf357600080fd5b610cfd6005611efb565b8260086000610d0c6005611ae9565b81526020019081526020016000209080519060200190610d2d929190612f04565b5033600684604051610d3f91906141f8565b908152602001604051809103902060060160006101000a81548173ffffffffffffffffffffffffffffffffffffffff021916908373ffffffffffffffffffffffffffffffffffffffff160217905550610dc133600685604051610da291906141f8565b9081526020016040518091039020600001611f1190919063ffffffff16565b5081600684604051610dd391906141f8565b90815260200160405180910390206007019080519060200190610df7929190612f04565b5080600684604051610e0991906141f8565b908152602001604051809103902060040181905550505050565b610e2d8233611af7565b610e6081600684604051610e4191906141f8565b9081526020016040518091039020600001611f1190919063ffffffff16565b505050565b60608151835114610eab576040517f08c379a0000000000000000000000000000000000000000000000000000000008152600401610ea290614347565b60405180910390fd5b6000835167ffffffffffffffff811115610ec857610ec76133f5565b5b604051908082528060200260200182016040528015610ef65781602001602082028036833780820191505090505b50905060005b8451811015610f7357610f43858281518110610f1b57610f1a614099565b5b6020026020010151858381518110610f3657610f35614099565b5b602002602001015161064a565b828281518110610f5657610f55614099565b5b60200260200101818152505080610f6c9061417e565b9050610efc565b508091505092915050565b610fb133600685604051610f9291906141f8565b9081526020016040518091039020600001611f4190919063ffffffff16565b610fba57600080fd5b6000600684604051610fcc91906141f8565b90815260200160405180910390206004015411610fe857600080fd5b600683604051610ff891906141f8565b9081526020016040518091039020600401600081548092919061101a90614367565b91905055506110296004611efb565b60006040518060c001604052808681526020018581526020013373ffffffffffffffffffffffffffffffffffffffff1681526020018381526020018381526020018481525090506110ac61107d6004611ae9565b60068660405161108d91906141f8565b9081526020016040518091039020600201611f7190919063ffffffff16565b5080600760006110bc6004611ae9565b815260200190815260200160002060008201518160000190805190602001906110e6929190612f04565b506020820151816001019080519060200190611103929190612f04565b5060408201518160020160006101000a81548173ffffffffffffffffffffffffffffffffffffffff021916908373ffffffffffffffffffffffffffffffffffffffff160217905550606082015181600301556080820151816004015560a082015181600501559050505050505050565b60008073ffffffffffffffffffffffffffffffffffffffff1660068360405161119c91906141f8565b908152602001604051809103902060060160009054906101000a900473ffffffffffffffffffffffffffffffffffffffff1673ffffffffffffffffffffffffffffffffffffffff1614156111f357600090506111f8565b600190505b919050565b6112078233611f8b565b8060076000848152602001908152602001600020600501819055505050565b600060068260405161123891906141f8565b90815260200160405180910390206004015461127360068460405161125d91906141f8565b9081526020016040518091039020600201611ffd565b61127d9190614043565b9050919050565b61128e8133611af7565b60006006826040516112a091906141f8565b908152602001604051809103902060060160009054906101000a900473ffffffffffffffffffffffffffffffffffffffff1690508073ffffffffffffffffffffffffffffffffffffffff166108fc6006846040516112fe91906141f8565b9081526020016040518091039020600501549081150290604051600060405180830381858888f1935050505015801561133b573d6000803e3d6000fd5b5060068260405161134c91906141f8565b908152602001604051809103902060050154600a5461136b91906142a1565b600a819055505050565b61137e81611ad0565b60006007600083815260200190815260200160002060040154116113a157600080fd5b34600760008381526020019081526020016000206005015411156113c457600080fd5b60016113d0338361064a565b106113da57600080fd5b6113e381612012565b6113ff3382600160405180602001604052806000815250612142565b60076000828152602001908152602001600020600401600081548092919061142690614367565b919050555050565b611440611439611b74565b83836122f3565b5050565b61144e8233611af7565b6114818160068460405161146291906141f8565b908152602001604051809103902060000161246090919063ffffffff16565b505050565b60006114bb8260068560405161149c91906141f8565b9081526020016040518091039020600001611f4190919063ffffffff16565b905092915050565b606060006114cf612490565b90506000805b8251811015611529576115028382815181106114f4576114f3614099565b5b602002602001015186611486565b156115165781806115129061417e565b9250505b80806115219061417e565b9150506114d5565b5060008167ffffffffffffffff811115611546576115456133f5565b5b60405190808252806020026020018201604052801561157957816020015b60608152602001906001900390816115645790505b5090506000805b845181101561160d576115ad85828151811061159f5761159e614099565b5b602002602001015188611486565b156115fa578481815181106115c5576115c4614099565b5b60200260200101518383815181106115e0576115df614099565b5b602002602001018190525081806115f69061417e565b9250505b80806116059061417e565b915050611580565b5081945050505050919050565b6060600061164760068460405161163191906141f8565b9081526020016040518091039020600201611ffd565b905060008167ffffffffffffffff811115611665576116646133f5565b5b6040519080825280602002602001820160405280156116935781602001602082028036833780820191505090505b50905060005b82811015611714576116d4816006876040516116b591906141f8565b90815260200160405180910390206002016125e290919063ffffffff16565b8282815181106116e7576116e6614099565b5b602002602001019063ffffffff16908163ffffffff1681525050808061170c9061417e565b915050611699565b508092505050919050565b611727612f8a565b600760008381526020019081526020016000206040518060c001604052908160008201805461175590613fe2565b80601f016020809104026020016040519081016040528092919081815260200182805461178190613fe2565b80156117ce5780601f106117a3576101008083540402835291602001916117ce565b820191906000526020600020905b8154815290600101906020018083116117b157829003601f168201915b505050505081526020016001820180546117e790613fe2565b80601f016020809104026020016040519081016040528092919081815260200182805461181390613fe2565b80156118605780601f1061183557610100808354040283529160200191611860565b820191906000526020600020905b81548152906001019060200180831161184357829003601f168201915b505050505081526020016002820160009054906101000a900473ffffffffffffffffffffffffffffffffffffffff1673ffffffffffffffffffffffffffffffffffffffff1673ffffffffffffffffffffffffffffffffffffffff16815260200160038201548152602001600482015481526020016005820154815250509050919050565b6000600160008473ffffffffffffffffffffffffffffffffffffffff1673ffffffffffffffffffffffffffffffffffffffff16815260200190815260200160002060008373ffffffffffffffffffffffffffffffffffffffff1673ffffffffffffffffffffffffffffffffffffffff16815260200190815260200160002060009054906101000a900460ff16905092915050565b611980611b74565b73ffffffffffffffffffffffffffffffffffffffff168573ffffffffffffffffffffffffffffffffffffffff1614806119c657506119c5856119c0611b74565b6118e4565b5b611a05576040517f08c379a00000000000000000000000000000000000000000000000000000000081526004016119fc90614281565b60405180910390fd5b611a1285858585856125fc565b5050505050565b611a2233611e9e565b80600360006101000a81548173ffffffffffffffffffffffffffffffffffffffff021916908373ffffffffffffffffffffffffffffffffffffffff16021790555050565b60007f01ffc9a7000000000000000000000000000000000000000000000000000000007bffffffffffffffffffffffffffffffffffffffffffffffffffffffff1916827bffffffffffffffffffffffffffffffffffffffffffffffffffffffff1916149050919050565b611ada6004611ae9565b811115611ae657600080fd5b50565b600081600001549050919050565b8073ffffffffffffffffffffffffffffffffffffffff16600683604051611b1e91906141f8565b908152602001604051809103902060060160009054906101000a900473ffffffffffffffffffffffffffffffffffffffff1673ffffffffffffffffffffffffffffffffffffffff1614611b7057600080fd5b5050565b600033905090565b8151835114611bc0576040517f08c379a0000000000000000000000000000000000000000000000000000000008152600401611bb790614403565b60405180910390fd5b600073ffffffffffffffffffffffffffffffffffffffff168473ffffffffffffffffffffffffffffffffffffffff161415611c30576040517f08c379a0000000000000000000000000000000000000000000000000000000008152600401611c2790614495565b60405180910390fd5b6000611c3a611b74565b9050611c4a818787878787612898565b60005b8451811015611dfb576000858281518110611c6b57611c6a614099565b5b602002602001015190506000858381518110611c8a57611c89614099565b5b60200260200101519050600080600084815260200190815260200160002060008b73ffffffffffffffffffffffffffffffffffffffff1673ffffffffffffffffffffffffffffffffffffffff16815260200190815260200160002054905081811015611d2b576040517f08c379a0000000000000000000000000000000000000000000000000000000008152600401611d2290614527565b60405180910390fd5b81810360008085815260200190815260200160002060008c73ffffffffffffffffffffffffffffffffffffffff1673ffffffffffffffffffffffffffffffffffffffff168152602001908152602001600020819055508160008085815260200190815260200160002060008b73ffffffffffffffffffffffffffffffffffffffff1673ffffffffffffffffffffffffffffffffffffffff1681526020019081526020016000206000828254611de09190614043565b9250508190555050505080611df49061417e565b9050611c4d565b508473ffffffffffffffffffffffffffffffffffffffff168673ffffffffffffffffffffffffffffffffffffffff168273ffffffffffffffffffffffffffffffffffffffff167f4a39dc06d4c0dbc64b70af90fd698a233a518aa5d07e595d983b8c0526c8f7fb8787604051611e72929190614547565b60405180910390a4611e888187878787876128a0565b611e968187878787876128a8565b505050505050565b8073ffffffffffffffffffffffffffffffffffffffff16600360009054906101000a900473ffffffffffffffffffffffffffffffffffffffff1673ffffffffffffffffffffffffffffffffffffffff1614611ef857600080fd5b50565b6001816000016000828254019250508190555050565b6000611f39836000018373ffffffffffffffffffffffffffffffffffffffff1660001b612a80565b905092915050565b6000611f69836000018373ffffffffffffffffffffffffffffffffffffffff1660001b612af0565b905092915050565b6000611f83836000018360001b612a80565b905092915050565b8073ffffffffffffffffffffffffffffffffffffffff166007600084815260200190815260200160002060020160009054906101000a900473ffffffffffffffffffffffffffffffffffffffff1673ffffffffffffffffffffffffffffffffffffffff1614611ff957600080fd5b5050565b600061200b82600001612b13565b9050919050565b60006007600083815260200190815260200160002060020160009054906101000a900473ffffffffffffffffffffffffffffffffffffffff169050600061205a34600a612b24565b9050806006600760008681526020019081526020016000206001016040516120829190614167565b90815260200160405180910390206005015461209e9190614043565b6006600760008681526020019081526020016000206001016040516120c39190614167565b90815260200160405180910390206005018190555080600a546120e69190614043565b600a819055508173ffffffffffffffffffffffffffffffffffffffff166108fc612111836008612b3a565b9081150290604051600060405180830381858888f1935050505015801561213c573d6000803e3d6000fd5b50505050565b600073ffffffffffffffffffffffffffffffffffffffff168473ffffffffffffffffffffffffffffffffffffffff1614156121b2576040517f08c379a00000000000000000000000000000000000000000000000000000000081526004016121a9906145f0565b60405180910390fd5b60006121bc611b74565b905060006121c985612b50565b905060006121d685612b50565b90506121e783600089858589612898565b8460008088815260200190815260200160002060008973ffffffffffffffffffffffffffffffffffffffff1673ffffffffffffffffffffffffffffffffffffffff16815260200190815260200160002060008282546122469190614043565b925050819055508673ffffffffffffffffffffffffffffffffffffffff16600073ffffffffffffffffffffffffffffffffffffffff168473ffffffffffffffffffffffffffffffffffffffff167fc3d58168c5ae7397731d063d5bbf3d657854427343f4c083240f7aacaa2d0f6289896040516122c4929190614610565b60405180910390a46122db836000898585896128a0565b6122ea83600089898989612bca565b50505050505050565b8173ffffffffffffffffffffffffffffffffffffffff168373ffffffffffffffffffffffffffffffffffffffff161415612362576040517f08c379a0000000000000000000000000000000000000000000000000000000008152600401612359906146ab565b60405180910390fd5b80600160008573ffffffffffffffffffffffffffffffffffffffff1673ffffffffffffffffffffffffffffffffffffffff16815260200190815260200160002060008473ffffffffffffffffffffffffffffffffffffffff1673ffffffffffffffffffffffffffffffffffffffff16815260200190815260200160002060006101000a81548160ff0219169083151502179055508173ffffffffffffffffffffffffffffffffffffffff168373ffffffffffffffffffffffffffffffffffffffff167f17307eab39ab6107e8899845ad3d59bd9653f200f220920489ca2b5937696c318360405161245391906131a5565b60405180910390a3505050565b6000612488836000018373ffffffffffffffffffffffffffffffffffffffff1660001b612da2565b905092915050565b6060600061249e6005611ae9565b67ffffffffffffffff8111156124b7576124b66133f5565b5b6040519080825280602002602001820160405280156124ea57816020015b60608152602001906001900390816124d55790505b50905060005b6124fa6005611ae9565b8110156125da57600860006001836125129190614043565b8152602001908152602001600020805461252b90613fe2565b80601f016020809104026020016040519081016040528092919081815260200182805461255790613fe2565b80156125a45780601f10612579576101008083540402835291602001916125a4565b820191906000526020600020905b81548152906001019060200180831161258757829003601f168201915b50505050508282815181106125bc576125bb614099565b5b602002602001018190525080806125d29061417e565b9150506124f0565b508091505090565b60006125f18360000183612eb6565b60001c905092915050565b600073ffffffffffffffffffffffffffffffffffffffff168473ffffffffffffffffffffffffffffffffffffffff16141561266c576040517f08c379a000000000000000000000000000000000000000000000000000000000815260040161266390614495565b60405180910390fd5b6000612676611b74565b9050600061268385612b50565b9050600061269085612b50565b90506126a0838989858589612898565b600080600088815260200190815260200160002060008a73ffffffffffffffffffffffffffffffffffffffff1673ffffffffffffffffffffffffffffffffffffffff16815260200190815260200160002054905085811015612737576040517f08c379a000000000000000000000000000000000000000000000000000000000815260040161272e90614527565b60405180910390fd5b85810360008089815260200190815260200160002060008b73ffffffffffffffffffffffffffffffffffffffff1673ffffffffffffffffffffffffffffffffffffffff168152602001908152602001600020819055508560008089815260200190815260200160002060008a73ffffffffffffffffffffffffffffffffffffffff1673ffffffffffffffffffffffffffffffffffffffff16815260200190815260200160002060008282546127ec9190614043565b925050819055508773ffffffffffffffffffffffffffffffffffffffff168973ffffffffffffffffffffffffffffffffffffffff168573ffffffffffffffffffffffffffffffffffffffff167fc3d58168c5ae7397731d063d5bbf3d657854427343f4c083240f7aacaa2d0f628a8a604051612869929190614610565b60405180910390a461287f848a8a86868a6128a0565b61288d848a8a8a8a8a612bca565b505050505050505050565b505050505050565b505050505050565b6128c78473ffffffffffffffffffffffffffffffffffffffff16612ee1565b15612a78578373ffffffffffffffffffffffffffffffffffffffff1663bc197c8187878686866040518663ffffffff1660e01b815260040161290d95949392919061472f565b6020604051808303816000875af192505050801561294957506040513d601f19601f8201168201806040525081019061294691906147ac565b60015b6129ef576129556147e6565b806308c379a014156129b2575061296a614808565b8061297557506129b4565b806040517f08c379a00000000000000000000000000000000000000000000000000000000081526004016129a99190613286565b60405180910390fd5b505b6040517f08c379a00000000000000000000000000000000000000000000000000000000081526004016129e690614910565b60405180910390fd5b63bc197c8160e01b7bffffffffffffffffffffffffffffffffffffffffffffffffffffffff1916817bffffffffffffffffffffffffffffffffffffffffffffffffffffffff191614612a76576040517f08c379a0000000000000000000000000000000000000000000000000000000008152600401612a6d906149a2565b60405180910390fd5b505b505050505050565b6000612a8c8383612af0565b612ae5578260000182908060018154018082558091505060019003906000526020600020016000909190919091505582600001805490508360010160008481526020019081526020016000208190555060019050612aea565b600090505b92915050565b600080836001016000848152602001908152602001600020541415905092915050565b600081600001805490509050919050565b60008183612b3291906149f1565b905092915050565b60008183612b489190614a22565b905092915050565b60606000600167ffffffffffffffff811115612b6f57612b6e6133f5565b5b604051908082528060200260200182016040528015612b9d5781602001602082028036833780820191505090505b5090508281600081518110612bb557612bb4614099565b5b60200260200101818152505080915050919050565b612be98473ffffffffffffffffffffffffffffffffffffffff16612ee1565b15612d9a578373ffffffffffffffffffffffffffffffffffffffff1663f23a6e6187878686866040518663ffffffff1660e01b8152600401612c2f959493929190614a7c565b6020604051808303816000875af1925050508015612c6b57506040513d601f19601f82011682018060405250810190612c6891906147ac565b60015b612d1157612c776147e6565b806308c379a01415612cd45750612c8c614808565b80612c975750612cd6565b806040517f08c379a0000000000000000000000000000000000000000000000000000000008152600401612ccb9190613286565b60405180910390fd5b505b6040517f08c379a0000000000000000000000000000000000000000000000000000000008152600401612d0890614910565b60405180910390fd5b63f23a6e6160e01b7bffffffffffffffffffffffffffffffffffffffffffffffffffffffff1916817bffffffffffffffffffffffffffffffffffffffffffffffffffffffff191614612d98576040517f08c379a0000000000000000000000000000000000000000000000000000000008152600401612d8f906149a2565b60405180910390fd5b505b505050505050565b60008083600101600084815260200190815260200160002054905060008114612eaa576000600182612dd491906142a1565b9050600060018660000180549050612dec91906142a1565b9050818114612e5b576000866000018281548110612e0d57612e0c614099565b5b9060005260206000200154905080876000018481548110612e3157612e30614099565b5b90600052602060002001819055508387600101600083815260200190815260200160002081905550505b85600001805480612e6f57612e6e614ad6565b5b600190038181906000526020600020016000905590558560010160008681526020019081526020016000206000905560019350505050612eb0565b60009150505b92915050565b6000826000018281548110612ece57612ecd614099565b5b9060005260206000200154905092915050565b6000808273ffffffffffffffffffffffffffffffffffffffff163b119050919050565b828054612f1090613fe2565b90600052602060002090601f016020900481019282612f325760008555612f79565b82601f10612f4b57805160ff1916838001178555612f79565b82800160010185558215612f79579182015b82811115612f78578251825591602001919060010190612f5d565b5b509050612f869190612fd6565b5090565b6040518060c001604052806060815260200160608152602001600073ffffffffffffffffffffffffffffffffffffffff1681526020016000815260200160008152602001600081525090565b5b80821115612fef576000816000905550600101612fd7565b5090565b6000604051905090565b600080fd5b600080fd5b600073ffffffffffffffffffffffffffffffffffffffff82169050919050565b600061303282613007565b9050919050565b61304281613027565b811461304d57600080fd5b50565b60008135905061305f81613039565b92915050565b6000819050919050565b61307881613065565b811461308357600080fd5b50565b6000813590506130958161306f565b92915050565b600080604083850312156130b2576130b1612ffd565b5b60006130c085828601613050565b92505060206130d185828601613086565b9150509250929050565b6130e481613065565b82525050565b60006020820190506130ff60008301846130db565b92915050565b60007fffffffff0000000000000000000000000000000000000000000000000000000082169050919050565b61313a81613105565b811461314557600080fd5b50565b60008135905061315781613131565b92915050565b60006020828403121561317357613172612ffd565b5b600061318184828501613148565b91505092915050565b60008115159050919050565b61319f8161318a565b82525050565b60006020820190506131ba6000830184613196565b92915050565b6000602082840312156131d6576131d5612ffd565b5b60006131e484828501613086565b91505092915050565b600081519050919050565b600082825260208201905092915050565b60005b8381101561322757808201518184015260208101905061320c565b83811115613236576000848401525b50505050565b6000601f19601f8301169050919050565b6000613258826131ed565b61326281856131f8565b9350613272818560208601613209565b61327b8161323c565b840191505092915050565b600060208201905081810360008301526132a0818461324d565b905092915050565b600081519050919050565b600082825260208201905092915050565b6000819050602082019050919050565b600082825260208201905092915050565b60006132f0826131ed565b6132fa81856132d4565b935061330a818560208601613209565b6133138161323c565b840191505092915050565b600061332a83836132e5565b905092915050565b6000602082019050919050565b600061334a826132a8565b61335481856132b3565b935083602082028501613366856132c4565b8060005b858110156133a25784840389528151613383858261331e565b945061338e83613332565b925060208a0199505060018101905061336a565b50829750879550505050505092915050565b600060408201905081810360008301526133ce818561333f565b905081810360208301526133e2818461333f565b90509392505050565b600080fd5b600080fd5b7f4e487b7100000000000000000000000000000000000000000000000000000000600052604160045260246000fd5b61342d8261323c565b810181811067ffffffffffffffff8211171561344c5761344b6133f5565b5b80604052505050565b600061345f612ff3565b905061346b8282613424565b919050565b600067ffffffffffffffff82111561348b5761348a6133f5565b5b6134948261323c565b9050602081019050919050565b82818337600083830152505050565b60006134c36134be84613470565b613455565b9050828152602081018484840111156134df576134de6133f0565b5b6134ea8482856134a1565b509392505050565b600082601f830112613507576135066133eb565b5b81356135178482602086016134b0565b91505092915050565b6000806040838503121561353757613536612ffd565b5b600061354585828601613050565b925050602083013567ffffffffffffffff81111561356657613565613002565b5b613572858286016134f2565b9150509250929050565b600067ffffffffffffffff821115613597576135966133f5565b5b602082029050602081019050919050565b600080fd5b60006135c06135bb8461357c565b613455565b905080838252602082019050602084028301858111156135e3576135e26135a8565b5b835b8181101561360c57806135f88882613086565b8452602084019350506020810190506135e5565b5050509392505050565b600082601f83011261362b5761362a6133eb565b5b813561363b8482602086016135ad565b91505092915050565b600067ffffffffffffffff82111561365f5761365e6133f5565b5b6136688261323c565b9050602081019050919050565b600061368861368384613644565b613455565b9050828152602081018484840111156136a4576136a36133f0565b5b6136af8482856134a1565b509392505050565b600082601f8301126136cc576136cb6133eb565b5b81356136dc848260208601613675565b91505092915050565b600080600080600060a0868803121561370157613700612ffd565b5b600061370f88828901613050565b955050602061372088828901613050565b945050604086013567ffffffffffffffff81111561374157613740613002565b5b61374d88828901613616565b935050606086013567ffffffffffffffff81111561376e5761376d613002565b5b61377a88828901613616565b925050608086013567ffffffffffffffff81111561379b5761379a613002565b5b6137a7888289016136b7565b9150509295509295909350565b6000806000606084860312156137cd576137cc612ffd565b5b600084013567ffffffffffffffff8111156137eb576137ea613002565b5b6137f7868287016134f2565b935050602084013567ffffffffffffffff81111561381857613817613002565b5b613824868287016134f2565b925050604061383586828701613086565b9150509250925092565b6000806040838503121561385657613855612ffd565b5b600083013567ffffffffffffffff81111561387457613873613002565b5b613880858286016134f2565b925050602061389185828601613050565b9150509250929050565b600067ffffffffffffffff8211156138b6576138b56133f5565b5b602082029050602081019050919050565b60006138da6138d58461389b565b613455565b905080838252602082019050602084028301858111156138fd576138fc6135a8565b5b835b8181101561392657806139128882613050565b8452602084019350506020810190506138ff565b5050509392505050565b600082601f830112613945576139446133eb565b5b81356139558482602086016138c7565b91505092915050565b6000806040838503121561397557613974612ffd565b5b600083013567ffffffffffffffff81111561399357613992613002565b5b61399f85828601613930565b925050602083013567ffffffffffffffff8111156139c0576139bf613002565b5b6139cc85828601613616565b9150509250929050565b600081519050919050565b600082825260208201905092915050565b6000819050602082019050919050565b613a0b81613065565b82525050565b6000613a1d8383613a02565b60208301905092915050565b6000602082019050919050565b6000613a41826139d6565b613a4b81856139e1565b9350613a56836139f2565b8060005b83811015613a87578151613a6e8882613a11565b9750613a7983613a29565b925050600181019050613a5a565b5085935050505092915050565b60006020820190508181036000830152613aae8184613a36565b905092915050565b60008060008060808587031215613ad057613acf612ffd565b5b600085013567ffffffffffffffff811115613aee57613aed613002565b5b613afa878288016134f2565b945050602085013567ffffffffffffffff811115613b1b57613b1a613002565b5b613b27878288016134f2565b9350506040613b3887828801613086565b9250506060613b4987828801613086565b91505092959194509250565b600060208284031215613b6b57613b6a612ffd565b5b600082013567ffffffffffffffff811115613b8957613b88613002565b5b613b95848285016134f2565b91505092915050565b60008060408385031215613bb557613bb4612ffd565b5b6000613bc385828601613086565b9250506020613bd485828601613086565b9150509250929050565b613be78161318a565b8114613bf257600080fd5b50565b600081359050613c0481613bde565b92915050565b60008060408385031215613c2157613c20612ffd565b5b6000613c2f85828601613050565b9250506020613c4085828601613bf5565b9150509250929050565b600060208284031215613c6057613c5f612ffd565b5b6000613c6e84828501613050565b91505092915050565b60006020820190508181036000830152613c91818461333f565b905092915050565b600081519050919050565b600082825260208201905092915050565b6000819050602082019050919050565b600063ffffffff82169050919050565b613cde81613cc5565b82525050565b6000613cf08383613cd5565b60208301905092915050565b6000602082019050919050565b6000613d1482613c99565b613d1e8185613ca4565b9350613d2983613cb5565b8060005b83811015613d5a578151613d418882613ce4565b9750613d4c83613cfc565b925050600181019050613d2d565b5085935050505092915050565b60006020820190508181036000830152613d818184613d09565b905092915050565b613d9281613027565b82525050565b600060c0830160008301518482036000860152613db582826132e5565b91505060208301518482036020860152613dcf82826132e5565b9150506040830151613de46040860182613d89565b506060830151613df76060860182613a02565b506080830151613e0a6080860182613a02565b5060a0830151613e1d60a0860182613a02565b508091505092915050565b60006020820190508181036000830152613e428184613d98565b905092915050565b60008060408385031215613e6157613e60612ffd565b5b6000613e6f85828601613050565b9250506020613e8085828601613050565b9150509250929050565b600080600080600060a08688031215613ea657613ea5612ffd565b5b6000613eb488828901613050565b9550506020613ec588828901613050565b9450506040613ed688828901613086565b9350506060613ee788828901613086565b925050608086013567ffffffffffffffff811115613f0857613f07613002565b5b613f14888289016136b7565b9150509295509295909350565b7f455243313135353a2061646472657373207a65726f206973206e6f742061207660008201527f616c6964206f776e657200000000000000000000000000000000000000000000602082015250565b6000613f7d602a836131f8565b9150613f8882613f21565b604082019050919050565b60006020820190508181036000830152613fac81613f70565b9050919050565b7f4e487b7100000000000000000000000000000000000000000000000000000000600052602260045260246000fd5b60006002820490506001821680613ffa57607f821691505b6020821081141561400e5761400d613fb3565b5b50919050565b7f4e487b7100000000000000000000000000000000000000000000000000000000600052601160045260246000fd5b600061404e82613065565b915061405983613065565b9250827fffffffffffffffffffffffffffffffffffffffffffffffffffffffffffffffff0382111561408e5761408d614014565b5b828201905092915050565b7f4e487b7100000000000000000000000000000000000000000000000000000000600052603260045260246000fd5b600081905092915050565b60008190508160005260206000209050919050565b600081546140f581613fe2565b6140ff81866140c8565b9450600182166000811461411a576001811461412b5761415e565b60ff1983168652818601935061415e565b614134856140d3565b60005b8381101561415657815481890152600182019150602081019050614137565b838801955050505b50505092915050565b600061417382846140e8565b915081905092915050565b600061418982613065565b91507fffffffffffffffffffffffffffffffffffffffffffffffffffffffffffffffff8214156141bc576141bb614014565b5b600182019050919050565b60006141d2826131ed565b6141dc81856140c8565b93506141ec818560208601613209565b80840191505092915050565b600061420482846141c7565b915081905092915050565b7f455243313135353a2063616c6c6572206973206e6f7420746f6b656e206f776e60008201527f6572206f7220617070726f766564000000000000000000000000000000000000602082015250565b600061426b602e836131f8565b91506142768261420f565b604082019050919050565b6000602082019050818103600083015261429a8161425e565b9050919050565b60006142ac82613065565b91506142b783613065565b9250828210156142ca576142c9614014565b5b828203905092915050565b7f455243313135353a206163636f756e747320616e6420696473206c656e67746860008201527f206d69736d617463680000000000000000000000000000000000000000000000602082015250565b60006143316029836131f8565b915061433c826142d5565b604082019050919050565b6000602082019050818103600083015261436081614324565b9050919050565b600061437282613065565b9150600082141561438657614385614014565b5b600182039050919050565b7f455243313135353a2069647320616e6420616d6f756e7473206c656e6774682060008201527f6d69736d61746368000000000000000000000000000000000000000000000000602082015250565b60006143ed6028836131f8565b91506143f882614391565b604082019050919050565b6000602082019050818103600083015261441c816143e0565b9050919050565b7f455243313135353a207472616e7366657220746f20746865207a65726f20616460008201527f6472657373000000000000000000000000000000000000000000000000000000602082015250565b600061447f6025836131f8565b915061448a82614423565b604082019050919050565b600060208201905081810360008301526144ae81614472565b9050919050565b7f455243313135353a20696e73756666696369656e742062616c616e636520666f60008201527f72207472616e7366657200000000000000000000000000000000000000000000602082015250565b6000614511602a836131f8565b915061451c826144b5565b604082019050919050565b6000602082019050818103600083015261454081614504565b9050919050565b600060408201905081810360008301526145618185613a36565b905081810360208301526145758184613a36565b90509392505050565b7f455243313135353a206d696e7420746f20746865207a65726f2061646472657360008201527f7300000000000000000000000000000000000000000000000000000000000000602082015250565b60006145da6021836131f8565b91506145e58261457e565b604082019050919050565b60006020820190508181036000830152614609816145cd565b9050919050565b600060408201905061462560008301856130db565b61463260208301846130db565b9392505050565b7f455243313135353a2073657474696e6720617070726f76616c2073746174757360008201527f20666f722073656c660000000000000000000000000000000000000000000000602082015250565b60006146956029836131f8565b91506146a082614639565b604082019050919050565b600060208201905081810360008301526146c481614688565b9050919050565b6146d481613027565b82525050565b600081519050919050565b600082825260208201905092915050565b6000614701826146da565b61470b81856146e5565b935061471b818560208601613209565b6147248161323c565b840191505092915050565b600060a08201905061474460008301886146cb565b61475160208301876146cb565b81810360408301526147638186613a36565b905081810360608301526147778185613a36565b9050818103608083015261478b81846146f6565b90509695505050505050565b6000815190506147a681613131565b92915050565b6000602082840312156147c2576147c1612ffd565b5b60006147d084828501614797565b91505092915050565b60008160e01c9050919050565b600060033d11156148055760046000803e6148026000516147d9565b90505b90565b600060443d10156148185761489b565b614820612ff3565b60043d036004823e80513d602482011167ffffffffffffffff8211171561484857505061489b565b808201805167ffffffffffffffff811115614866575050505061489b565b80602083010160043d03850181111561488357505050505061489b565b61489282602001850186613424565b82955050505050505b90565b7f455243313135353a207472616e7366657220746f206e6f6e2d4552433131353560008201527f526563656976657220696d706c656d656e746572000000000000000000000000602082015250565b60006148fa6034836131f8565b91506149058261489e565b604082019050919050565b60006020820190508181036000830152614929816148ed565b9050919050565b7f455243313135353a204552433131353552656365697665722072656a6563746560008201527f6420746f6b656e73000000000000000000000000000000000000000000000000602082015250565b600061498c6028836131f8565b915061499782614930565b604082019050919050565b600060208201905081810360008301526149bb8161497f565b9050919050565b7f4e487b7100000000000000000000000000000000000000000000000000000000600052601260045260246000fd5b60006149fc82613065565b9150614a0783613065565b925082614a1757614a166149c2565b5b828204905092915050565b6000614a2d82613065565b9150614a3883613065565b9250817fffffffffffffffffffffffffffffffffffffffffffffffffffffffffffffffff0483118215151615614a7157614a70614014565b5b828202905092915050565b600060a082019050614a9160008301886146cb565b614a9e60208301876146cb565b614aab60408301866130db565b614ab860608301856130db565b8181036080830152614aca81846146f6565b90509695505050505050565b7f4e487b7100000000000000000000000000000000000000000000000000000000600052603160045260246000fdfea26469706673582212209f2f970de20fe7c05dc0c9380d854566ecf1ad652d731201b4e88adc91a3444364736f6c634300080c0033",
  "linkReferences": {},
  "deployedLinkReferences": {}
}